:020000040800F2
:1000000090100020A10100084B0F0008410D0008CE
:10001000490F00086D0600086D150008000000007B
:10002000000000000000000000000000451400086F
:10003000D507000800000000AD130008E514000813
:10004000BB010008BB010008BB010008BB010008A0
:10005000BB010008BB010008D7070008BB0100086E
:10006000BB010008BB010008BB010008BB01000880
:10007000BB010008BB010008BB010008BB01000870
:10008000BB010008BB010008BB010008BB01000860
:10009000BB010008BB010008BB010008BB01000850
:1000A000BB010008BB010008BB010008BB01000840
:1000B000BB010008BB01000800000000BB010008F4
:1000C000BB0100080000000000000000BB010008A8
:1000D00000000000BB010008BB010008BB010008D4
:1000E000BB010008BB010008000000000000000088
:1000F0000000000000000000000000000000000000
:1001000000000000000000000000000000000000EF
:100110000000000000000000BB010008BB01000857
:1001200000000000000000000000000000000000CF
:1001300000000000000000000000000000000000BF
:10014000BB010008BB010008000000008508000892
:10015000BB010008BB010008BB010008BB0100088F
:10016000BB010008BB010008000000000000000007
:10017000000000000000000000000000000000007F
:1001800000000000BB010008DFF810D000F032F9D9
:1001900000480047A1160008AFF30080901000202F
:1001A0000648804706480047FEE7FEE7FEE7FEE711
:1001B000FEE7FEE7FEE7FEE7FEE7FEE7E9140008DC
:1001C00089010008D2B201E000F8012B491EFBD2E0
:1001D00070470022F6E710B513460A460446194652
:1001E000FFF7F0FF204610BD2DE9FE4F81EA030422
:1001F00004F0004421F0004100944FF0000B23F084
:10020000004350EA01045ED052EA03045BD0C3F31A
:100210000A54C1F30A552C44A4F2F3340194A0FB10
:100220000254C1F3130141F48011C3F3130343F4E7
:10023000801301FB024400FB034E840A970A44EA40
:10024000815447EA8357A4FB076802958D0A05FB92
:1002500007854FEA932C04FB0C542705029D4FEAB7
:10026000065847EA1637B5EB08056EEB070C870E04
:10027000920E47EA811742EA8312A7FB0201B6EB0E
:100280000B0164EB00042B0D43EA0C335E1844EBC6
:100290001C50DA465146E7FB0201C5F313044FEA4E
:1002A0000B3343EA14534FEA0432019C43EA06033A
:1002B000A4F10C040294009CCDE900B400F04BF8CA
:1002C00003B0BDE8F08F00200146F9E70EB540F21B
:1002D000334102910021CDE900110A460B4600F09E
:1002E0003AF803B000BDC1F30A5210B5C1F31301CF
:1002F00040F2FF3341F480119A4201DA002010BD30
:1003000040F233439A42A2F2334203DC524200F0FD
:1003100003F810BD904010BD202A04DB203A21FADA
:1003200002F00021704721FA02F3D040C2F120020E
:10033000914008431946704710B5141E73F100042C
:1003400008DA401C41F1000192185B411A4301D1C7
:1003500020F0010010BD2DE9F04D92469B4611B1F1
:10036000B1FA81F202E0B0FA80F22032904600F059
:1003700053F804460F4640EA0A0041EA0B0153468F
:100380005A46084313D0114653EA010019D0C8F168
:1003900040025046FFF7C0FF05460E4650465946FC
:1003A000424600F039F8084305D0012004E0204619
:1003B0003946BDE8F08D0020054346EAE0762C433F
:1003C00037430A986305E40AA0EB08000022FD0AFF
:1003D00044EA47540A3002D500200146E9E7010506
:1003E00010196941DDE9084500196941BDE8F04D82
:1003F000A2E70000064C074D06E0E06840F001036C
:1004000094E8070098471034AC42F6D3FFF7C0FEDB
:100410008C2A0008AC2A0008202A04DB203A00FAC3
:1004200002F1002070479140C2F1200320FA03F34B
:10043000194390407047002904D0816841F00101C0
:1004400081607047816841F002018160704700005F
:10045000F0B54FF0A043114D114C124E984201D00F
:10046000A04203D1D3F808232A4001E032682A4091
:10047000D1E900573D43D1E9027C47EA0C37097CBA
:100480003D4345EA01211143984201D0A04202D1E7
:10049000C3F80813F0BD3160F0BD0000E010FCFFB0
:1004A0000001005008070050002904D0C16841F045
:1004B0000101C1607047C16821F00101C16070474E
:1004C000C26822F00202C260C2680A43C26070477A
:1004D00010B5B0F1A04F02D00F4988420AD10121D6
:1004E0000C07204600F086FF2046BDE810400021A2
:1004F00000F080BF0949884202D0094988420AD1E8
:1005000001214C07204600F075FF2046BDE8104051
:10051000002100F06FBF10BD00010050000400502A
:1005200000050050014600208968002900DA0120FA
:1005300070470246002012680A4200D0012070472E
:1005400030B5C3680C4A1340D1E900242243D1E9F5
:1005500002452C4322430C6922434C6922438C6997
:1005600022431A43C260026B22F00F02097F491E28
:100570001143016330BD000007C0FFFD30B51F24EB
:10058000052A0AD2056B02EB420252009440A543B1
:1005900001FA02F42543056326E00A2A0BD2456BD3
:1005A000521F02EB420252009440A54301FA02F4AA
:1005B0002543456318E00F2A0BD2856B0A3A02EBFC
:1005C000420252009440A54301FA02F42543856398
:1005D0000AE0C56B0F3A02EB420252009440A54379
:1005E00001FA02F42543C56309290DD982690A3944
:1005F00001EB410107228A40846994438461826946
:100600008B401A43826130BD42694A1E02EB4204AC
:100610003822A240446994434461426901EB41019C
:100620008B401A43426130BD826822F08042826072
:1006300082680A4382607047816841F000418160AE
:100640007047816841F0040181607047826822F040
:1006500040528260002904D0816841F0805181605D
:100660007047816841F0005181607047FEE70029C2
:1006700004D0016841F001010160704701684FF644
:10068000FE7211400160704701684FF6FE72114022
:1006900001600021016041608160C1603649364AD5
:1006A0000839904204D1486840F00F004860704714
:1006B000314A1432904204D1486840F0F00048605A
:1006C00070472D4A2832904204D1486840F4706047
:1006D00048607047284A3C32904204D1486840F450
:1006E000704048607047244A5032904204D14868B4
:1006F00040F47020486070471F4A6432904204D131
:10070000486840F47000486070471B4A7832904255
:1007100004D1486840F0706048607047174A111F64
:10072000904204D1086840F00F0008607047134AF7
:100730001432904204D1086840F0F000086070471D
:100740000E4A2832904204D1086840F47060086074
:1007500070470A4A3C32904204D1086840F4704025
:1007600008607047054A50329042FAD1086840F458
:100770007020086070470000080002400804024032
:1007800030B5026847F6F0739A430C6A8B682343CE
:10079000D1E904452C4323438C692343CC6923438B
:1007A0004C6A23438C6A2343134303608A89426063
:1007B0000A6882604968C16030BD00210160416003
:1007C00081608181016141618161C1610162416238
:1007D0008162704770477047F0B5002201270326F9
:1007E00007FA02F30C681C409C422BD10D79012DB5
:1007F00001D0022D13D18468550006FA05FC24EAC5
:100800000C0484604C79AC4085682C4384608488F7
:100810009C43848084888B7993401C438480056842
:10082000530006FA03F4A54305600D79D0F800C023
:100830009D4045EA0C050560C568A543CC799C4000
:100840002C43C460521C102ACAD3F0BD10B54B070C
:10085000DB0E9A40C90800EB8100016A0F249C401E
:10086000A1430162016A1143016210BD02460020EA
:10087000128A0A4200D001207047018570478161C9
:100880007047000070B52DED048B00F087FD284CFB
:10089000A28E618D208C00F0DFFE00EE100A9FED2D
:1008A000258A254DB8EE400A20EE080A85ED030A98
:1008B000628E218DE08B00F0CFFE00EE100AB8EEC4
:1008C000400A20EE080A85ED050A228FE18DA08CF2
:1008D00000F0C2FE00EE100A9FED199ADFED178AB4
:1008E000B8EE400AB0EE498A00EE288A85ED048A07
:1008F000E28EA18D608C00F0AFFE00EE100AB0EE2B
:10090000498AB8EE400A00EE288A85ED068AD5EDC0
:10091000010A95ED030A0B4800F054FA85ED020A2E
:100920000220BDEC048BBDE8704001F035BC000036
:1009300050000020DEFFC73C00000020EF33533B97
:100940003333D3C038000020D0F88033012906D0DB
:1009500002290CD0042913D0082921D118E023F44E
:10096000E02113680B435168C0F8BC1318E023F46E
:100970006011136841EAC3035168C0F8C0130FE067
:1009800023F0E071136841EA83135168C0F8C4137F
:1009900023F06061136841EA43235168C0F8C8132B
:1009A000C0F880337047062907D2DFE801F0070757
:1009B00007070703816811438160704700EBC1108E
:1009C00050F8881F114301607047D0F8CC234B1CAE
:1009D00007D022F00D020A4342F00201C0F8CC1306
:1009E000704722F0020141F00101F7E710B500EB7A
:1009F000C11050F8B81F0C4B1940136841EA83230B
:100A00005168194393680B4314691C43D16821430F
:100A1000938A41EA034193690B43116A1943D269EE
:100A20000A43026010BD00000020FF3D0246002086
:100A3000D2F888230A4200D00120704710B5062959
:100A400008D2DFE801F00C0C0C0C0C031BB1C168E0
:100A50001143C16010BDC1689143C16010BD00EB7E
:100A6000C11023B150F88C1F1143016010BD50F824
:100A70008C1F9143016010BD026822F007020260E2
:100A800002688B681A430260026822F01802026052
:100A90000268CB681A4302600A6842614968816152
:100AA0007047012907D0022907D0042907D0082957
:100AB00000D1C2627047C261704742627047826271
:100AC000704710B50268D0F8A04322F020030A68EE
:100AD0001A4322F400634A681A4322F480638A6846
:100AE0001A4322F0C063CA681A4322F000630A69FD
:100AF0001A4322F040424B6942EA830222F000533B
:100B0000CA691A4324F48033896919430260C0F822
:100B1000A01310BD10B5002400EBC110D0F8E410F4
:100B2000202A1FD00CDC042A15D004DC012A12D0A4
:100B3000022A1ED116E0082A14D0102A19D10AE080
:100B4000402A08D0802A0DD0B2F5807F03D0B2F5BC
:100B5000007F0ED106E05A68C0F8BC209A68C0F841
:100B6000C02006E05A68C0F8C4209A68C0F8C820BF
:100B70001024FE22A24091431A68A2400A43D96879
:100B8000A14011431A69A2400A435969A140114387
:100B90009A69A2400A43D969A1401143C0F8E41000
:100BA00010BD00EBC110012A08D0022A09D0042A86
:100BB0000AD0082A01D1C0F8AC307047C0F89C3088
:100BC0007047C0F8A4307047C0F8A830704700EBF9
:100BD000C11050F8801F21F007010160016893687F
:100BE00019430160016821F0180101600168D368B0
:100BF000194301601168416151688161704770B5A6
:100C000000EBC115D5F88040D0F8A03324F02006C1
:100C10001468344324F400665468344324F4806632
:100C20009468344324F0C066D468344324F00066EA
:100C30001469344324F070465469344324F4003476
:100C4000D669B6F1005F01D144F40034052921D200
:100C5000DFE801F003090F151B0023F4003192694E
:100C600041EA420316E023F48021926941EA8203BB
:100C700010E023F40021926941EAC2030AE023F460
:100C80008011926941EA021304E023F40011926991
:100C900041EA4213C5F88040C0F8A03370BD026835
:100CA0000A4302607047FFF735BFC0F894137047DE
:100CB00030B500EBC11050F8801F836E446E456D57
:100CC00021F040051168294321F48025D169294389
:100CD00021F0FC755169294323F01F05137903F0B6
:100CE0001F032B4323F0004593682B4324F48075A6
:100CF000D4682C4324F4F05514692C4392690160A4
:100D000083664466426530BD70B50C4606461146A2
:100D10001D46052C0BD00A4621463046FFF757FFEB
:100D20002A4621463046BDE87040FFF768BF30468E
:100D3000FFF7A2FE29463046BDE87040FFF7C1BE6E
:100D4000FEE7000070B50B4D4FF480742146284635
:100D5000FFF795FD660031462846FFF790FD3146C6
:100D60002846FFF78AFD21462846BDE87040FFF778
:100D700084BD00000004004870B5094C4FF4807138
:100D80002046FFF77CFD4FF4007529462046FFF70B
:100D900074FD29462046BDE87040FFF770BD000095
:100DA0000004004870B5064D4FF480742146284673
:100DB000FFF765FD21462846BDE87040FFF75DBDA1
:100DC0000004004830EEC00A90ED041AD0ED000A8D
:100DD00030EE411A60EE810A90ED011A41EE000AF0
:100DE00080ED040A90ED050A30EE200A80ED050A38
:100DF000D0ED020AB4EEE00AF1EE10FA01DDB0EE39
:100E0000600A80ED050AD0ED030AB4EEE00AF1EEC7
:100E100010FA01D2B0EE600A80ED050A70470000BA
:100E20002DE9FC410124009400268DF8046003257F
:100E30008DF805508DF807400F4F69463846FFF78B
:100E4000CBFC022000908DF804608DF805508DF8E1
:100E5000074069463846FFF7BFFC042000908DF834
:100E600004608DF805508DF8074069463846FFF755
:100E7000B3FCBDE8FC8100000004004810B5164C2E
:100E800001212046FFF7F2FC58B102212046FFF76E
:100E9000EDFC30B104212046FFF7E8FC08B100204A
:100EA00010BD0A2000F0CEFB01212046FFF7DEFC3A
:100EB00058B102212046FFF7D9FC40B10421204659
:100EC000FFF7D4FC28B1002010BD012010BD022086
:100ED00010BD032010BD0000000400482DE9FC41B6
:100EE0004FF40040009001248DF8044000258DF857
:100EF00006508DF8074003268DF80560114F6946AE
:100F00003846FFF769FCA00300908DF804408DF887
:100F100006508DF807408DF8056069463846FFF7A2
:100F20005BFC600300908DF804408DF806508DF84E
:100F300007408DF8056069463846FFF74DFCBDE86F
:100F4000FC81000000080048FEE7704770B50F23E1
:100F5000C27801260178002A1ED0144A126802F4D1
:100F6000E062C2F5E062120AC2F10404D34045789F
:100F7000A54082781A402A43120101F1E02181F84C
:100F80000024007800F01F018E404009800000F12D
:100F9000E020C0F8006170BD01F01F0086404809E4
:100FA000800000F1E020C0F8806170BD0CED00E031
:100FB00070B50025002105F1B00000F0CCF900214A
:100FC000084600F0C8F90021102000F0C4F9002400
:100FD0000121002000F0BFF9641CE4B2802CF7D39B
:100FE0006D1CEDB2082DE5D370BD00007CB54FF44B
:100FF0004074009401208DF8040000228DF8062032
:101000008DF8070003208DF805003D4D6946284600
:10101000FFF7E2FB21462846FFF731FC4FF448700A
:1010200000F010FB0021AE2000F095F900210846E9
:1010300000F091F90021102000F08DF900214020EE
:1010400000F089F90021B02000F085F9002181200D
:1010500000F081F90021FF2000F07DF90021A1209E
:1010600000F079F90021A62000F075F90021A820F0
:1010700000F071F900213F2000F06DF90021C82037
:1010800000F069F90021D32000F065F9002108463D
:1010900000F061F90021D52000F05DF900218020E9
:1010A00000F059F90021D82000F055F90021052061
:1010B00000F051F90021D92000F04DF90021F12074
:1010C00000F049F90021DA2000F045F90021122052
:1010D00000F041F90021DB2000F03DF90021302033
:1010E00000F039F900218D2000F035F9002114209D
:1010F00000F031F90021AF2000F02DF97CBD000097
:101100000004004810B5044608460021B03000F045
:1011100022F9102040EA1410002100F01CF904F01C
:101120000F00BDE81040002100F015B92DE9F04195
:1011300080460F460024203AD5B2B8F17F0F02D97D
:10114000A046BF1CFFB2102B12D039464046FFF715
:10115000D9FF184905EB450001EB40050121285D49
:1011600000F0F9F8641CE4B2062CF7D3BDE8F08176
:1011700039464046FFF7C6FF0F4E04EB051001212C
:10118000305C00F0E8F8641CE4B2082CF5D37F1C56
:10119000F9B24046FFF7B6FF002404EB05103044D7
:1011A0000121007A00F0D7F8641CE4B2082CF4D3D3
:1011B000DCE70000742200089C2400082DE9F05FA1
:1011C0008046DDF828A08B4691461D460026002467
:1011D0004FEA5A071EE0281B401EC1B20A2001F048
:1011E00041F899FBF0F00A2190FBF1F201FB1200AB
:1011F000C0B226B9691E8C4201DA78B101263030BE
:10120000C2B207FB0480C0B253465946FFF78EFFB7
:10121000641CE4B2AC42DED3BDE8F09F07FB04805F
:10122000C0B2534620225946FFF780FFF0E72DE970
:10123000F05F8046DDF828A08B4691461D460026CB
:1012400000244FEA5A071DE0281B401EC1B20A20A5
:1012500001F008F8B9FBF0F00A21B0FBF1F201FB54
:10126000120026B9691E8C4201DA78B101263030AD
:10127000C2B207FB0480C0B253465946FFF756FF7F
:10128000641CE4B2AC42DFD3BDE8F09F07FB0480EE
:10129000C0B2534630225946FFF748FFF0E72DE928
:1012A000F8430646894617461D4600230124B5EE3D
:1012B000C00AF1EE10FA02DBF0EE400A01E0F1EEB6
:1012C000400ABDEEE01A11EE108AB8EEC11A70EEB7
:1012D000C10A04E004EB840044005B1CDBB2BB42A7
:1012E000F8D301EE104AB8EEC11A60EE810AFDEEA5
:1012F000E00A10EE904AB5EEC00AF1EE10FA06D2FE
:101300002B462D2249463046FFF710FF05E02B46BD
:101310002B2249463046FFF709FF06EB5500C0B2C5
:101320000223424649460095FFF748FF05EB45007A
:1013300006EB5000C0B22B462E224946FFF7F6FEC0
:1013400006EB4500C0B23B46224649460095FFF7F2
:101350006EFFBDE8F883002902D0C0B200F04BB99F
:10136000C0B200F031B980ED000AC0ED010A80ED95
:10137000021AC0ED031A70479FED070A80ED000ABC
:1013800080ED010A80ED020A80ED030A80ED040A77
:1013900080ED050A704700000000000010220521C2
:1013A0000148FFF700BB00000074014070470000D7
:1013B000020F0849002A04D0CA6A22F47852CA628D
:1013C00003E0CA6A22F4F872CA62CA6A0243CA62B5
:1013D0007047000000100240054A002903D05169FF
:1013E0000143516170475169814351617047000069
:1013F00000100240054A002903D0916A014391621E
:101400007047916A8143916270470000001002406A
:10141000054A002903D091690143916170479169A0
:1014200081439161704700000010024004490A6B3B
:1014300022F480520A630A6B02430A637047000079
:1014400000100240704700000CB50022019200928B
:101450002248016841F4803101604FF4A0430168E3
:1014600001F4003100910199491C0191009911B9D1
:1014700001999942F3D10168890302D501210091B4
:1014800000E000920099012926D1154A122111602D
:101490004168416041684160416841F48061416058
:1014A000416821F47C114160416841F4E8114160D8
:1014B000016841F08071016001688901FCD54168D3
:1014C00021F003014160416841F00201416041683F
:1014D000C1F381010229FAD10CBD000000100240C5
:1014E0000020024000F038B810B51648016841F4F9
:1014F000700101601448016841F001010160416818
:10150000124A114041600168114A114001600168AE
:1015100021F480210160416821F4FE014160C16A2B
:1015200021F00F01C162016B0A4A114001630021E1
:101530008160FFF789FF03494FF000608039086040
:1015400010BD000088ED00E0001002400CC07FF8E4
:10155000FFFFF6FECCFC00FF03484168002902D0E3
:101560004168491E416070471C000020FEE70000F2
:101570002DE9F0410446134F4FF48076314638464A
:10158000FFF77BF900254FF4007804F080008028F5
:1015900013D041463846FFF770F96006040E314615
:1015A0003846FFF76CF931463846FFF766F96D1C8F
:1015B000EDB2082DE9D3BDE8F08141463846FFF78A
:1015C0005EF9EAE70004004810B50446FFF7BAFBED
:1015D0007820FFF7CDFFFFF7E5FB0020FFF7C8FFFE
:1015E000FFF7E0FB2046FFF7C3FFFFF7DBFBBDE89B
:1015F0001040FFF7C1BB10B50446FFF7A3FB7820EE
:10160000FFF7B6FFFFF7CEFB4020FFF7B1FFFFF774
:10161000C9FB2046FFF7ACFFFFF7C4FBBDE8104055
:10162000FFF7AABB02E008C8121F08C1002AFAD1BE
:1016300070477047002001E001C1121F002AFBD152
:101640007047000001B503480099416041680029D6
:10165000FCD108BD1C000020034610468B4207D970
:10166000814201D9084670479842FCD91846704714
:10167000814201D2084670479842FCD21846704712
:1016800002494FF4004008807047000028080048D5
:1016900002494FF4004008607047000018080048F5
:1016A00000F02AFA00F002F8FCE7000010B54FF451
:1016B0009670FFF7C7FF0020FFF7E0FB274C207074
:1016C0009FED270A012805D1D4ED010A70EE800AAA
:1016D000C4ED010A022805D1D4ED010A30EEC00A9A
:1016E00084ED010A6068B0F17C5F03DAB6EE000AAF
:1016F00084ED010A1B496068884203DD9FED1A0AE8
:1017000084ED010A00211023042294ED030A084607
:10171000FFF7C5FD1023042294ED050A02210020E5
:10172000FFF7BDFD0422102394ED040A11460020AA
:10173000FFF7B5FD1023042294ED010A06210020D5
:10174000FFF7ADFD2069B0F1814F03DDBDE810402A
:10175000FFF79EBFBDE81040FFF792BF00000020DA
:10176000CDCCCC3D0000A0420000A0422DE9F04FBE
:101770009BB04FF480773846FFF71AFE0121080727
:10178000FFF72AFE01210846FFF742FE0121084625
:10179000FFF722FE3F20199003268DF86860002491
:1017A0008DF86B408DF869608DF86A4019A9CD48B5
:1017B000FFF712F80F2519958DF868608DF86B40CA
:1017C0008DF869608DF86A4019A94FF09040FFF7D5
:1017D00003F8DFF814A35046FEF756FFDFF808B30E
:1017E0000BF1140B5846FEF74FFF0EA8FEF7E5FF6E
:1017F000BE480E90BE480F901094ADF8445012941D
:101800004FF08008CDF84C801497BE0015964FF02D
:101810002009CDF858904FF44050179018940EA915
:101820005846FEF7ADFFB3480E90B1481E300F90FA
:101830001094ADF844501294CDF84C80149715963E
:10184000CDF85890179418940EA95046FEF798FFBB
:1018500001215846FEF70BFF01215046FEF707FF16
:10186000DFF88882A8F140084046FEF731FE4FF0CD
:10187000A0473846FEF72CFE01213846FEF7E6FE6B
:1018800001214046FEF7E2FE0A20FFF7DBFE0021C1
:101890004046FEF7C9FE00213846FEF7C5FE404629
:1018A000FEF7CAFE3846FEF7C7FE4046FEF73AFE90
:1018B0000028FAD13846FEF735FE0028FAD1019407
:1018C00002944FF4004003900220049001208DF810
:1018D000140001A94046FEF7BBFD01A93846FEF7FA
:1018E000B7FD069407944FF4E070089009960A94A7
:1018F0000B940C948DF8345006A94046FEF720FE58
:10190000069407944FF400700890800009900A94A0
:101910000B940C948DF8345006A93846FEF710FE4F
:1019200002214046FEF7CCFD02213846FEF7C8FDF5
:101930000122052311463846FEF720FE0222052328
:1019400011463846FEF71AFE032205231146384693
:10195000FEF714FE0422052311463846FEF70EFE5C
:1019600005231A4606213846FEF708FE05230622FF
:1019700001213846FEF702FE0523072202213846E0
:10198000FEF7FCFD0523082203213846FEF7F6FD8D
:101990000523092204213846FEF7F0FD05230A221B
:1019A00006213846FEF7EAFD05230B2201213846C1
:1019B000FEF7E4FD05230C2202213846FEF7DEFD8A
:1019C00005230D2203213846FEF7D8FD05230E22FC
:1019D00004213846FEF7D2FD05230F2206213846A2
:1019E000FEF7CCFD052301220B214046FEF7C6FD84
:1019F0000523022219464046FEF7C0FD05230322B7
:101A000007214046FEF7BAFD05230422082140467F
:101A1000FEF7B4FD05231A4609214046FEF7AEFD48
:101A2000052306220B214046FEF7A8FD05230722C9
:101A300019464046FEF7A2FD05230822072140462D
:101A4000FEF79CFD0523092208214046FEF796FD7E
:101A500005230A2209214046FEF790FD0B220523AB
:101A600011464046FEF78AFD05230C2219464046E2
:101A7000FEF784FD05230D2207214046FEF77EFD7B
:101A800005230E2208214046FEF778FD05230F228C
:101A900009214046FEF772FD01214046FEF704FD94
:101AA00001213846FEF700FD01214046FEF7C3FC48
:101AB00001213846FEF7BFFC01214046FEF739FD03
:101AC0000028F9D001213846FEF733FD0028F9D06F
:101AD0004046FEF7B6FD3846FEF7B3FD1BB0BDE845
:101AE000F08F00000008004808000240400100504C
:101AF000500000204000005010B500F087FB64202B
:101B0000FFF7A0FDFFF732FE0E48FFF735FCFFF7A9
:101B100087F9FFF76BFAFFF74BFAFFF7DFF9DFED15
:101B20000A1A9FED0A1ADFED0A0A9FED0A0A054814
:101B3000FFF719FC0122BDE81040042144F62060A3
:101B400000F00AB838000020CDCCCC3D3333733FD1
:101B500017B751396F12033A2DE9F04F07462DEDB3
:101B6000028BABB00D469046002429942A9425940C
:101B700026942794289420211DA8FEF72AFB2021D3
:101B800015A8FEF726FB20210DA8FEF722FB242135
:101B900004A8FEF71EFB02940394019449F2880006
:101BA000874203D89FEDFE8A022609E0FD4887425E
:101BB00003D89FEDFD8A012602E09FEDFC8A0026F6
:101BC0004FF48050FFF732FC4FF0005B0121584684
:101BD000FFF71EFCDFF8D8A30C215046FEF7F5FEF8
:101BE0004FF480315046FEF721FF0028F8D01594BD
:101BF0001694179418944FF0006019901A941B943F
:101C0000CDF870B000EE107AB8EE400AC8EE000AC7
:101C1000BCEEE00A8DED250AA8F10108CDF8988008
:101C200027964FF00809CDF8A09015AB25AA0521FD
:101C30005046FFF769F8E8074FF0010864D04FF409
:101C40004070299003208DF8A90002208DF8A8008B
:101C50008DF8AA408DF8AB4029A94FF09040FEF7CF
:101C6000BBFD0D2208214FF09040FEF7EFFD09214A
:101C70000D22C806FEF7EAFDCDF870B000EE107A2E
:101C8000B8EE400AC8EE000ABCEEE00A8DED250A67
:101C9000CDF898802796CDF8A09015AB25AA002105
:101CA0005046FFF731F84FF48070209021941E9435
:101CB0001F941D9423942494C00222901DAA0021F5
:101CC0005046FEF7F5FF0D94CDF8389040200F9068
:101CD000109411941294139414940DAB01220021CA
:101CE0005046FEF7E0FFCDF810800B940A940C9458
:101CF0004FF496700990079406940894059004AAEE
:101D000000215046FEF772FEA80766D54FF44060EA
:101D1000299003208DF8A90002208DF8A8008DF8E5
:101D2000AA408DF8AB4029A94FF09040FEF754FD32
:101D30000D220A214FF09040FEF788FD0D220B2165
:101D40004FF09040FEF782FDCDF870B000EE107AB3
:101D5000B8EE400AC8EE000ABCEEE00A8DED250A96
:101D6000CDF898802796CDF8A09015AB25AA012133
:101D70005046FEF7C9FF4FF48070209021941E94C6
:101D80001F941D94102023902494000422901DAAD7
:101D900001215046FEF78CFF0D94CDF8389040207D
:101DA0000F90109411941294139414940DAB042278
:101DB00001215046FEF777FFCDF810800B940A946E
:101DC0000C944FF49670099007940694089405902B
:101DD00004AA01215046FEF709FE680762D54FF4B8
:101DE0004050299003208DF8A90002208DF8A8000A
:101DF0008DF8AA408DF8AB4029A96E48FEF7ECFC9F
:101E00000D220C216B48FEF721FD0D221146694879
:101E1000FEF71CFDCDF870B000EE107AB8EE400A67
:101E2000C8EE000ABCEEE00A8DED250ACDF89880D8
:101E30002796CDF8A09015AB25AA02215046FEF7B3
:101E400063FF4FF48070209021941E941F941D9482
:101E500023942494400322901DAA02215046FEF7A9
:101E600027FF0D94CDF8389040200F9010941194D6
:101E70001294139414940DAB102202215046FEF7D5
:101E800012FFCDF810800B940A940C944FF49670C6
:101E90000990079406940894059004AA02215046DC
:101EA000FEF7A4FD280762D54FF440402990032097
:101EB0008DF8A90002208DF8A8008DF8AA408DF8B1
:101EC000AB4029A93B48FEF787FC0D220E2139487B
:101ED000FEF7BCFC0D220F213648FEF7B7FCCDF80B
:101EE00070B000EE107AB8EE400AC8EE000ABCEE00
:101EF000E00A8DED250ACDF898802796CDF8A090C0
:101F000015AB25AA03215046FEF7FEFE4FF4807064
:101F1000209021941E941F941D9423942494800354
:101F200022901DAA03215046FEF7C2FE0D94CDF863
:101F3000389040200F90109411941294139414949C
:101F40000DAB402203215046FEF7ADFECDF81080C8
:101F50000B940A940C944FF496710991079406948B
:101F60000894059104AA03215046FEF73FFD2598E9
:101F7000FEF7ACF99FED108B53EC182BFEF734F9FC
:101F8000FEF7B1F9024601215046FEF78AFD259879
:101F9000FEF79CF953EC182BFEF726F910E0000031
:101FA0004054894E581501004054094F4054894F00
:101FB0000074014000040048000000000000E03F01
:101FC000FEF791F9024608215046FEF76AFD259872
:101FD000FEF77CF953EC182BFEF706F9FEF783F9B0
:101FE0000346012203215046FEF7DBFD2598FEF74C
:101FF0006DF953EC182BFEF7F7F8FEF774F903466A
:10200000082203215046FEF7CCFD2598FEF75EF925
:1020100053EC182BFEF7E8F8FEF765F903460122AA
:1020200000215046FEF7BDFD2598FEF74FF953EC11
:10203000182BFEF7D9F8FEF756F9034608220021BF
:102040005046FEF7AEFD2598FEF740F953EC182BED
:10205000FEF7CAF8FEF747F903460122114650463B
:10206000FEF79FFD2598FEF731F953EC182BFEF78C
:10207000BBF8FEF738F90346082201215046FEF767
:1020800090FD2598FEF722F953EC182BFEF7ACF8DB
:10209000FEF729F90346012202215046FEF781FD91
:1020A0002598FEF713F953EC182BFEF79DF8FEF771
:1020B0001AF90346082202215046FEF772FD2598C0
:1020C000FEF704F953EC182BFEF78EF8FEF70BF928
:1020D0000346012203215046FEF763FD2598FEF7D3
:1020E000F5F853EC182BFEF77FF8FEF7FCF80346E3
:1020F000082203215046FEF754FDCDF80C800294CF
:1021000002AA04215046FEF71FFC102003900294FF
:1021100002AA01215046FEF717FC43208DF8040067
:102120008DF806408DF805408DF8078001A8FEF770
:102130000DFF0123102205215046FEF77FFC4FF4CE
:10214000F0115046FEF7ABFDE80703D003215046DF
:10215000FEF7ABFDA80703D50C215046FEF7A5FD01
:10216000680703D530215046FEF79FFD280703D5A9
:10217000C0215046FEF799FD4FF480315046FEF7DE
:102180008EFD0449259808602BB0BDEC028BBDE89C
:10219000F08F00003400002070B506462DED028B54
:1021A000B6EE001A174CD4ED000AF8EE601A61EE94
:1021B000811ABCEEE18A60EE018AF8EE600A124DE7
:1021C000B8EE480A01223146284608EEE00ABCEE85
:1021D000C00A10EE103AFEF7E4FC94ED000A314616
:1021E0002846F8EE400AB8EE480A082208EEA00A8F
:1021F000BDEC028BBDE87040BCEEC00A10EE103A98
:10220000FEF7CFBC340000200074014010B5134825
:102210004FF47A710068B0FBF1F0401EB0F1807F9E
:1022200009D24FF0E02148610D4AF02010700020E3
:1022300088610720086101214804FFF7CDF80121DA
:102240008804FFF7C9F80121C804FFF7C5F8012188
:10225000BDE810400805FFF7BFB800001C000020D3
:1022600023ED00E00346012000E05843491EC9B2B7
:10227000FBD270470000000000000000002F0000AB
:1022800000000700070000147F147F1400242A7F39
:102290002A120062640813230036495522500000B8
:1022A0000503000000001C224100000041221C0028
:1022B0000014083E08140008083E0808000000A0AA
:1022C00060000008080808080000606000000020A6
:1022D00010080402003E5149453E0000427F400084
:1022E000004261514946002141454B31001814120A
:1022F0007F10002745454539003C4A4949300001D7
:102300007109050300364949493600064949291E25
:102310000000363600000000563600000008142287
:102320004100001414141414000041221408000287
:102330000151090600324959513E007C1211127CAC
:10234000007F49494936003E41414122007F4141D9
:10235000221C007F49494941007F09090901003ECB
:102360004149497A007F0808087F0000417F410009
:10237000002040413F01007F08142241007F40407F
:102380004040007F020C027F007F0408107F003E67
:102390004141413E007F09090906003E4151215E4D
:1023A000007F091929460046494949310001017F4A
:1023B0000101003F4040403F001F2040201F003FE0
:1023C0004038403F00631408146300070870080792
:1023D00000615149454300007F41410000552A55A5
:1023E0002A55000041417F00000402010204004020
:1023F0004040404000000102040000205454547842
:10240000007F484444380038444444200038444461
:10241000487F00385454541800087E0901020018FF
:10242000A4A4A47C007F080404780000447D40003C
:10243000004080847D00007F102844000000417F20
:102440004000007C04180478007C080404780038FC
:102450004444443800FC242424180018242418FC84
:10246000007C0804040800485454542000043F44ED
:102470004020003C4040207C001C2040201C003CB0
:102480004030403C004428102844001CA0A0A07C00
:10249000004464544C441414141414140000000038
:1024A000000000000000000000000000000000F834
:1024B00000000000000000333000000000100C0697
:1024C000100C0600000000000000000040C0784032
:1024D000C0784000043F04043F040400007088FCFE
:1024E00008300000001820FF211E0000F008F00056
:1024F000E018000000211C031E211E0000F00888C7
:10250000700000001E2123241927211010160E0030
:10251000000000000000000000000000000000E0DB
:1025200018040200000000071820400000020418F0
:10253000E00000000040201807000000404080F04C
:10254000804040000202010F01020200000000F082
:10255000000000000101011F010101000000000056
:102560000000000080B070000000000000000000CB
:102570000000000000010101010101010000000054
:1025800000000000003030000000000000000000EB
:1025900080601804006018060100000000E01008C8
:1025A0000810E000000F102020100F00001010F89D
:1025B000000000000020203F2020000000700808DC
:1025C000088870000030282422213000003008885C
:1025D000884830000018202020110E000000C02084
:1025E00010F8000000070424243F240000F80888A5
:1025F000880808000019212020110E0000E0108832
:1026000088180000000F112020110E000038080863
:10261000C83808000000003F000000000070880873
:1026200008887000001C222121221C0000E01008F4
:102630000810E0000000312222110F00000000C04D
:10264000C0000000000000303000000000000080EA
:1026500000000000000080600000000000008040DA
:1026600020100800000102040810200040404040F3
:102670004040400004040404040404000008102046
:10268000408000000020100804020100007048088B
:102690000808F0000000003036010000C030C828F3
:1026A000E810E0000718272423140B000000C038AE
:1026B000E0000000203C23020227382008F8888828
:1026C00088700000203F202020110E00C030080834
:1026D00008083800071820202010080008F808080B
:1026E0000810E000203F202020100F0008F8888804
:1026F000E8081000203F20202320180008F88888D0
:10270000E8081000203F200003000000C030080847
:102710000838000007182020221E020008F80800D0
:102720000008F808203F210101213F20000808F897
:10273000080800000020203F2020000000000808BA
:10274000F8080800C08080807F00000008F888C07A
:1027500028180800203F20012638200008F808002B
:1027600000000000203F20202020300008F8F80062
:10277000F8F80800203F003F003F200008F830C074
:102780000008F808203F200007183F00E010080864
:102790000810E0000F10202020100F0008F8080893
:1027A0000808F000203F210101010000E0100808A6
:1027B0000810E0000F18242438504F0008F88888CB
:1027C00088887000203F2000030C302000708808AB
:1027D000080838000038202121221C00180808F8B9
:1027E000080818000000203F2000000008F808003A
:1027F0000008F808001F202020201F00087888000B
:1028000000C83808000007380E010000F80800F87A
:102810000008F800033C0700073C03000818688024
:102820008068180820302C03032C30200838C8009A
:10283000C83808000000203F2000000010080808E9
:10284000C83808002038262120201800000000FE8B
:10285000020202000000007F40404000000C30C037
:1028600000000000000000010638C0000002020263
:10287000FE000000004040407F0000000000040215
:102880000202040000000000000000000000000040
:102890000000000080808080808080800002020430
:1028A0000000000000000000000000000000808028
:1028B000808000000019242222223F2008F8008096
:1028C00080000000003F112020110E000000008059
:1028D00080800000000E11202020110000000080E8
:1028E0008088F800000E112020103F20000080801A
:1028F00080800000001F222222221300008080F02E
:10290000888888180020203F202000000000808058
:1029100080808000006B94949493600008F800809D
:1029200080800000203F210000203F2000809898F8
:10293000000000000020203F202000000000008058
:102940009898000000C08080807F000008F8000098
:1029500080808000203F24022D302000000808F8ED
:10296000000000000020203F2020000080808080A8
:1029700080808000203F20003F20003F808000803A
:1029800080800000203F210000203F200000808048
:1029900080800000001F202020201F0080800080F9
:1029A0008000000080FFA12020110E0000000080A8
:1029B00080808000000E112020A0FF808080800099
:1029C0008080800020203F212000010000008080C6
:1029D000808080000033242424241900008080E0BB
:1029E000808000000000001F202000008080000088
:1029F00000808000001F202020103F208080800069
:102A00000080808000010E30080601008080008078
:102A1000008080800F300C030C300F00008080009D
:102A2000808080000020312E0E31200080808000C8
:102A30000080808080818E70180601000080808078
:102A4000808080000021302C222130000000000016
:102A5000807C020200000000003F404000000000B7
:102A6000FF00000000000000FF0000000002027CE8
:102A7000800000000040403F00000000000601010F
:102A8000020204040000000000000000AC2A00085C
:102A9000000000203800000024160008E42A000886
:102AA0003800002058100000341600080000000014
:102AB00000000040000000000000000000000000D6
:102AC000000000000000000000A24A040000000016
:102AD00000000000000000000102030406070809CE
:042AE00000000000F2
:040000050800018965
:00000001FF
