:020000040800F2
:1000000010110020A1010008D91200081D110008DC
:10001000D5120008E5070008B91900080000000023
:100020000000000000000000000000004D18000863
:10003000A3090008000000009D170008151900081A
:10004000BB010008BB010008BB010008BB010008A0
:10005000BB010008BB010008A5090008BB0100089E
:10006000BB010008BB010008BB010008BB01000880
:10007000BB010008BB010008BB010008BB01000870
:10008000BB010008BB010008BB010008BB01000860
:10009000BB010008BB010008BB010008BB01000850
:1000A000BB010008BB010008BB010008BB01000840
:1000B000BB010008BB01000800000000BB010008F4
:1000C000BB0100080000000000000000BB010008A8
:1000D00000000000BB010008BB010008BB010008D4
:1000E000BB010008BB010008000000000000000088
:1000F0000000000000000000000000000000000000
:1001000000000000000000000000000000000000EF
:100110000000000000000000BB010008BB01000857
:1001200000000000000000000000000000000000CF
:1001300000000000000000000000000000000000BF
:10014000BB010008BB010008000000009D0A000878
:10015000BB010008BB010008BB010008BB0100088F
:10016000BB010008BB010008000000000000000007
:10017000000000000000000000000000000000007F
:1001800000000000BB010008DFF810D000F032F9D9
:1001900000480047391B0008AFF300801011002011
:1001A0000648804706480047FEE7FEE7FEE7FEE711
:1001B000FEE7FEE7FEE7FEE7FEE7FEE71D190008A3
:1001C00089010008D2B201E000F8012B491EFBD2E0
:1001D00070470022F6E710B513460A460446194652
:1001E000FFF7F0FF204610BD2DE9FE4F81EA030422
:1001F00004F0004421F0004100944FF0000B23F084
:10020000004350EA01045ED052EA03045BD0C3F31A
:100210000A54C1F30A552C44A4F2F3340194A0FB10
:100220000254C1F3130141F48011C3F3130343F4E7
:10023000801301FB024400FB034E840A970A44EA40
:10024000815447EA8357A4FB076802958D0A05FB92
:1002500007854FEA932C04FB0C542705029D4FEAB7
:10026000065847EA1637B5EB08056EEB070C870E04
:10027000920E47EA811742EA8312A7FB0201B6EB0E
:100280000B0164EB00042B0D43EA0C335E1844EBC6
:100290001C50DA465146E7FB0201C5F313044FEA4E
:1002A0000B3343EA14534FEA0432019C43EA06033A
:1002B000A4F10C040294009CCDE900B400F04BF8CA
:1002C00003B0BDE8F08F00200146F9E70EB540F21B
:1002D000334102910021CDE900110A460B4600F09E
:1002E0003AF803B000BDC1F30A5210B5C1F31301CF
:1002F00040F2FF3341F480119A4201DA002010BD30
:1003000040F233439A42A2F2334203DC524200F0FD
:1003100003F810BD904010BD202A04DB203A21FADA
:1003200002F00021704721FA02F3D040C2F120020E
:10033000914008431946704710B5141E73F100042C
:1003400008DA401C41F1000192185B411A4301D1C7
:1003500020F0010010BD2DE9F04D92469B4611B1F1
:10036000B1FA81F202E0B0FA80F22032904600F059
:1003700053F804460F4640EA0A0041EA0B0153468F
:100380005A46084313D0114653EA010019D0C8F168
:1003900040025046FFF7C0FF05460E4650465946FC
:1003A000424600F039F8084305D0012004E0204619
:1003B0003946BDE8F08D0020054346EAE0762C433F
:1003C00037430A986305E40AA0EB08000022FD0AFF
:1003D00044EA47540A3002D500200146E9E7010506
:1003E00010196941DDE9084500196941BDE8F04D82
:1003F000A2E70000064C074D06E0E06840F001036C
:1004000094E8070098471034AC42F6D3FFF7C0FEDB
:100410003031000850310008202A04DB203A00FA6D
:1004200002F1002070479140C2F1200320FA03F34B
:1004300019439040704721B1826842F00102826006
:1004400003E0826842F002028260704710B5002229
:10045000B0F1A04F02D0124B984204D1114B1A6850
:10046000114B1A4003E0114B1A680F4B1A40D1E9A7
:10047000003423438C682343CC6843EA04330C7C68
:1004800043EA04231A43B0F1A04F02D0044B984230
:1004900002D1044B1A6001E0044B1A6010BD000049
:1004A0000001005008030050E010FCFF0807005056
:1004B00021B1C26842F00102C26003E0C26822F0CA
:1004C0000102C2607047C26822F00202C260C268C4
:1004D0000A43C2607047000010B50446B4F1A04F53
:1004E00002D00E48844209D10121080701F080F9A9
:1004F00000214FF0805001F07BF90EE00848844263
:1005000002D00848844208D10121480701F070F95F
:1005100000214FF0005001F06BF910BD00010050B8
:100520000004005000050050014600208A6802F0D7
:1005300000420AB1012000E000207047024600207E
:1005400013680B400BB1012000E000207047000051
:1005500010B502460020D0680C4B1840D1E9003499
:1005600023438C682343CC6823430C6923434C69A1
:1005700023438C6923431843D060106B20F00F0095
:100580000B7F5B1E1843106310BD000007C0FFFD0A
:10059000F0B50C461D4600BF00BF052A0FDA016BFF
:1005A00002EB420677001F2606FA07F3994302EB97
:1005B0004206760004FA06F3194301633CE00A2A76
:1005C00011DA416B561F06EB460677001F2606FA26
:1005D00007F39943561F06EB4606760004FA06F326
:1005E0001943416328E00F2A13DA816BA2F10A064E
:1005F00006EB460677001F2606FA07F39943A2F199
:100600000A0606EB4606760004FA06F319438163F0
:1006100012E0C16BA2F10F0606EB460677001F261B
:1006200006FA07F39943A2F10F0606EB4606760099
:1006300004FA06F31943C163092C14DD8169A4F19E
:100640000A0606EB4607072606FA07F386699E4365
:1006500086618669A4F10A0707EB470705FA07F7E1
:100660003E43866110E04169661E06EB4607382668
:1006700006FA07F346699E434661466904EB440760
:1006800005FA07F73E434661F0BD826822F08042DA
:10069000826082680A4382607047816841F000414D
:1006A00081607047816841F0040181607047826811
:1006B00022F04052826021B1826842F08052826012
:1006C00003E0826842F00052826070477047000089
:1006D0003A4890ED011A3A48D0ED011AB0EE002ADE
:1006E00072EE611A9FED372A11EE821ADFED361A8B
:1006F00021EE211AF0EE410A304890ED001A304800
:10070000D0ED011AB0EE002A72EE611A9FED2F2A89
:1007100001EE821A31EE201AB0EE410A9FED2C1A3A
:10072000B4EEC10AF1EE10FA05DD9FED291A294851
:1007300080ED001A0FE09FED281AB4EEC10AF1EE29
:1007400010FA05D29FED241A224880ED001A02E02B
:10075000204880ED000A1A4890ED001A1D4880EDEF
:10076000041A174890ED011A1A4880ED051A14482A
:1007700090ED021A174880ED061A114890ED031A01
:10078000144880ED071A0D4890ED001A0C48D0ED82
:10079000011AB0EE002A72EE611A9FED102A01EEE6
:1007A000821A064880ED001A90ED011ADFED0B1A4F
:1007B00001EEA01A80ED011A7047000038000020F9
:1007C00048000020000000000000C84217B7D138E0
:1007D0003333733F7C000020CDCC4C3D17B75138EC
:1007E0007047704700BFFEE721B1026842F0010286
:1007F000026004E002684FF6FE731A400260704720
:1008000001684FF6FE7211400160002101604160F5
:100810008160C1604B49884208D14A49083949681A
:1008200041F00F01474A083A51608AE045491431C6
:10083000884208D143490839496841F0F001414AEA
:10084000083A51607DE03F492831884208D13D494E
:100850000839496841F470613A4A083A516070E0D9
:1008600038493C31884208D136490839496841F451
:100870007041344A083A516063E03249503188424D
:1008800008D130490839496841F470212D4A083AA5
:10089000516056E02B496431884208D12949083912
:1008A000496841F47001274A083A516049E02549F6
:1008B0007831884208D123490839496841F070618C
:1008C000204A083A51603CE01F49884206D1011F86
:1008D000096841F00F01021F116032E01A4914311A
:1008E000884208D11849091F096841F0F001164AE9
:1008F000121F116025E014492831884208D112499D
:10090000091F096841F470610F4A121F116018E055
:100910000D493C31884208D10B49091F096841F44F
:100920007041094A121F11600BE00749503188429B
:1009300007D10549091F096841F47021024A121FB5
:1009400011607047080002400804024010B5002200
:10095000026847F6F0739A430C6A8B6823430C696C
:1009600023434C6923438C692343CC6923434C6A5A
:1009700023438C6A23431A4302608B8943600B68CC
:1009800083604B68C36010BD0021016041608160DD
:100990008181016141618161C16101624162816264
:1009A000704770477047F0B50A46002100240025C3
:1009B000002300BF3FE0012606FA01F4166806EAAC
:1009C0000405A54236D11679012E02D01679022EE1
:1009D00018D186684FEA410C032707FA0CF7BE438B
:1009E000866056794F00BE4087683E4386608688A1
:1009F00001278F40BE438680878896798E40B6B2A5
:100A00003743878006684FEA410C032707FA0CF743
:100A1000BE43066016794F00BE4007683E4306603D
:100A2000C3684F000326BE40B343D6794F00BE4093
:100A30003343C360491C1029BDD3F0BDF0B500237A
:100A400000244D07ED0E02FA05F3CE1000F120054B
:100A500055F826504E07F70E0F26BE40B543CF106F
:100A600000F1200646F82750CE1000F1200555F879
:100A7000265045EA0304CE1000F1200545F8264033
:100A8000F0BD02460020138A0B400BB1012000E0AC
:100A900000207047018570478161704710B500F0F4
:100AA00073FE354890ED000A344880ED0A0A32485A
:100AB00090ED010A314880ED0B0A2F4890ED020AB3
:100AC0002E4880ED0C0A2E4B5A8E198DD88B00F0D3
:100AD000EBFF00EE100AF8EE400A9FED2A1A9FED98
:100AE0002A0A00EE810A254880ED000A244B9A8EDE
:100AF000598D188C00F0D8FF00EE100AF8EE400A6D
:100B00009FED201A9FED200A00EE810A1B4880ED20
:100B1000010A1B4BDA8E998D588C00F0C5FF00EE50
:100B2000100AF8EE400A9FED191A9FED190A00EE1F
:100B3000810A124880ED020A114B1A8FD98D988CC8
:100B400000F0B2FF00EE100AF8EE400A9FED0F1A17
:100B50009FED0F0A00EE810A084880ED030AFFF7B7
:100B600040FEFFF7B5FD0B48D0ED000AB0EE600A7D
:100B7000022001F03FFE10BDB4000020480000201C
:100B8000D4000020DEFFC73C00000000EF33533BE1
:100B90003333D3C07C00002030B50346D3F8800344
:100BA000012906D002290DD0042915D0082927D102
:100BB0001CE020F4E020146820434FF46F74556863
:100BC000E5501EE020F46010146840EAC4004FF4C1
:100BD00070745568E55014E020F0E070146840EA45
:100BE00084104FF471745568E55000BF20F06060C8
:100BF000146840EA44204FF472745568E55000E0F0
:100C000000BF00BFC3F8800330BD10B5062918D25D
:100C1000DFE801F00708090A0B03836813438360C8
:100C200010E000BF00BF00BF00BF00F1800303EB76
:100C3000C1139B68134300F1800404EBC114A3604B
:100C400000E000BF00BF10BD02464FF47373985818
:100C50004B1C23B920F0020040F0010004E020F01A
:100C60000D0041F0020318434FF47373985070471E
:100C700010B5034603F1800404EBC114A06B0E4CC5
:100C80002040146840EA842054682043946820433C
:100C900014692043D4682043948A40EA044094694C
:100CA0002043146A2043D469204303F1800404EBF9
:100CB000C114A06310BD00000020FF3D02460020CB
:100CC0004FF462739B580B400BB1012000E00020F1
:100CD000704730B506292AD2DFE801F00C0D0E0F5F
:100CE00010031BB1C4681443C46002E0C468944399
:100CF000C4601DE000BF00BF00BF00BF5BB100F1DA
:100D0000800404EBC114E468144300F1800505EB92
:100D1000C115EC600AE000F1800404EBC114E46842
:100D2000944300F1800505EBC115EC6000E000BFC5
:100D300000BF30BD026822F00702026002688B68C3
:100D40001A430260026822F0180202600268CB684F
:100D50001A4302600A6842614A6882617047012949
:100D600006D0022906D0042906D0082908D105E0BA
:100D7000C26106E0426204E0826202E0C26200E018
:100D800000BF00BF704710B5024610684FF468748A
:100D9000A35820F020000C68204320F400604C6829
:100DA000204320F480608C68204320F0C060CC6831
:100DB000204320F000600C69204320F040404C6943
:100DC00040EA840020F00050CC69204323F48033B3
:100DD0008C69234310604FF46874A35010BDF0B5C4
:100DE00004461546002204F1800606EBC116706E1B
:100DF000202D2CD00CDC042D16D004DC012D12D0BB
:100E0000022D34D121E0082D20D0102D2FD10CE05F
:100E1000402D0BD0802D1BD0B5F5807F07D0B5F5C8
:100E2000007F24D115E000BF00BF00BF00BF04F168
:100E3000800606EBC1165F68F76304F1800606EBD7
:100E4000C1169F683764002212E000BF00BF00BFD8
:100E500000BF04F1800606EBC1165F68776404F1F9
:100E6000800606EBC1169F68B764102200E000BF41
:100E700000BFFE269640B0431E6896403043DE68B1
:100E8000964030431E69964030435E699640304339
:100E90009E6996403043DE699640304304F18006F7
:100EA00006EBC1167066F0BD10B5012A06D0022A05
:100EB0000AD0042A0ED0082A18D111E000F18004CB
:100EC00004EBC114E36112E000F1800404EBC114EF
:100ED00063620CE000F1800404EBC114A36206E03D
:100EE00000F1800404EBC114E36200E000BF00BF26
:100EF00010BD10B500F1800303EBC1131B6823F094
:100F0000070400F1800303EBC1131C6000F18003B0
:100F100003EBC1131B689468234300F1800404EBC6
:100F2000C114236000F1800303EBC1131B6823F09D
:100F3000180400F1800303EBC1131C6000F180036F
:100F400003EBC1131B68D468234300F1800404EB56
:100F5000C114236000F1800303EBC11314685C61CA
:100F600000F1800303EBC11354689C6110BD30B5E0
:100F700004460B4604F1800505EBC31528684FF4C1
:100F80006875295920F020001568284320F4006076
:100F90005568284320F480609568284320F0C0609D
:100FA000D568284320F000601569284320F0704080
:100FB0005569284320F40030D569B5F1005F01D1AF
:100FC00040F40030052B22D2DFE803F003090F15AF
:100FD0001B0021F40031956941EA450118E021F434
:100FE0008021956941EA850112E021F4002195698B
:100FF00041EAC5010CE021F48011956941EA05112F
:1010000006E021F40011956941EA451100E000BFB6
:1010100000BF04F1800505EBC31528604FF4687527
:10102000295130BD02680A43026070472DE9F04142
:1010300004460D4616461F463B4632462946204684
:10104000FFF7CDFEBDE8F0814FF465721150704797
:10105000F0B500F1800707EBC1173B6800F180078E
:1010600007EBC117BC6E00F1800707EBC1177D6E5F
:1010700000F1800707EBC1177E6D23F0400317686E
:101080003B4323F48023D7693B4323F0FC73576928
:101090003B4324F01F04177907F01F073C4324F05B
:1010A000004497683C4325F48075D7683D4325F498
:1010B000F05517693D43966900F1800707EBC117AA
:1010C0003B6000F1800707EBC117BC6600F18007A9
:1010D00007EBC1177D6600F1800707EBC1177E653E
:1010E000F0BD2DE9F04107460D4616461C46052D7C
:1010F00008D131463846FFF71DFE21463846FFF736
:1011000042FE09E0324629463846FFF7F2FE224603
:1011100029463846FFF72BFFBDE8F08100BFFEE708
:1011200010B54FF480710948FFF7B6FC4FF4007119
:101130000648FFF7B1FC4FF400710448FFF7AAFC22
:101140004FF480710148FFF7A5FC10BD0004004872
:1011500010B54FF480710748FFF79EFC4FF4007103
:101160000448FFF797FC4FF400710248FFF794FC26
:1011700010BD00000004004810B54FF48071044811
:10118000FFF78AFC4FF480710148FFF783FC10BD24
:10119000000400481CB50120009000208DF80400D8
:1011A00003208DF8050001208DF8070069461148DD
:1011B000FFF7F9FB0220009000208DF804000320C7
:1011C0008DF8050001208DF8070069460948FFF7F2
:1011D000EAFB0420009000208DF8040003208DF825
:1011E000050001208DF8070069460248FFF7DBFB88
:1011F0001CBD00000004004810B50446012115483C
:10120000FFF73FFC48B102211248FFF73AFC20B13A
:1012100004211048FFF735FCC8B90A2000F038FC5B
:1012200001210C48FFF72DFC08B9012010BD022157
:101230000848FFF726FC08B90220F7E70421054813
:10124000FFF71FFC08B90320F0E70020EEE70020BD
:10125000ECE70000000400481CB54FF4004000908B
:1012600001208DF8040000208DF8060001208DF883
:10127000070003208DF8050069461548FFF793FB2A
:101280004FF48040009001208DF8040000208DF87C
:10129000060001208DF8070003208DF8050069463F
:1012A0000B48FFF780FB4FF40050009001208DF8B1
:1012B000040000208DF8060001208DF807000320AF
:1012C0008DF8050069460248FFF76DFB1CBD000064
:1012D0000008004800BFFEE77047000070B500211D
:1012E00000230F22C47804B3154C246804F4E0648E
:1012F000C4F5E064210AC1F10403CA40447804FA49
:1013000003F184781440214309010E4C0678A1555D
:10131000047804F01F050124AC4005786D11AD0080
:1013200005F1E025C5F8004109E0047804F01F0547
:101330000124AC40044D0678761145F8264070BD76
:101340000CED00E000E400E080E100E070B5002476
:1013500018E004F1B000002100F00AFA002108466C
:1013600000F006FA0021102000F002FA002505E046
:101370000121002000F0FCF9681CC5B2802DF7DBCC
:10138000601CC4B2082CE4DB70BD00001CB54FF437
:101390004070009001208DF8040000208DF80600B8
:1013A00001208DF8070003208DF8050069463C48B0
:1013B000FFF7F9FA4FF440713948FFF76DFB4FF42E
:1013C000487000F065FB0021AE2000F0D1F900214B
:1013D000084600F0CDF90021102000F0C9F90021E5
:1013E000402000F0C5F90021B02000F0C1F9002133
:1013F000812000F0BDF90021FF2000F0B9F90021A3
:10140000A12000F0B5F90021A62000F0B1F90021DB
:10141000A82000F0ADF900213F2000F0A9F900213B
:10142000C82000F0A5F90021D32000F0A1F9002187
:10143000084600F09DF90021D52000F099F900211F
:10144000802000F095F90021D82000F091F90021CA
:10145000052000F08DF90021D92000F089F9002144
:10146000F12000F085F90021DA2000F081F9002157
:10147000122000F07DF90021DB2000F079F9002135
:10148000302000F075F900218D2000F071F9002165
:10149000142000F06DF90021AF2000F069F91CBDA7
:1014A0000004004870B504460D4605F1B000002167
:1014B00000F05EF9102141EA1410002100F058F903
:1014C00004F00F00002100F053F970BD2DE9F04742
:1014D00007460E469046994600250024A8F12000B4
:1014E000C5B27F2F02DD0027B01CC6B2B9F1100FC4
:1014F00024D131463846FFF7D5FF002408E004EB3D
:101500000511194A505C012100F032F9601CC4B287
:10151000082CF4DB701CC1B23846FFF7C3FF00246F
:1015200009E004EB051108310F4A505C012100F07D
:101530001FF9601CC4B2082CF3DB12E031463846B8
:10154000FFF7B0FF00240AE005EB4501074A02EB74
:101550004101085D012100F00BF9601CC4B2062CAA
:10156000F2DBBDE8F08700003E2B000816290008DA
:101570002DE9FF5F074691461E460E9D4FF0000A7B
:10158000002437E0301B401EC1B20A2001F0B8F938
:1015900099FBF0F00A2190FBF1F201FB120000F040
:1015A000FF08BAF1000F14D1701EA04211DDB8F18E
:1015B000000F0CD1AB4605EBDB71491001FB047148
:1015C000C8B22B4620220199FFF780FF10E04FF0B0
:1015D000010AAB4605EBDB71491001FB0471C8B28F
:1015E00008F13001CAB22B460199FFF76FFF00BF27
:1015F000601CC4B2B442C5DBBDE8FF9F2DE9FF5FAC
:10160000074691461E460E9D4FF0000A002435E025
:10161000301B401EC1B20A2001F072F9B9FBF0F094
:101620000A21B0FBF1F201FB1208BAF1000F14D14C
:10163000701EA04211DDB8F1000F0CD1AB4605EBD6
:10164000DB71491001FB0471C8B22B4630220199AD
:10165000FFF73CFF10E04FF0010AAB4605EBDB71F2
:10166000491001FB0471C8B208F13001CAB22B461F
:101670000199FFF72BFF00BF601CC4B2B442C7DB67
:10168000BDE8FF9F2DE9FF4F2DED020B2DED048BE3
:1016900081B00546B0EE408A16461C464FF0000A5F
:1016A0004FF00109B5EEC08AF1EE10FA02DBF0EE60
:1016B000488A01E0F1EE488ABDEEE80A10EE107AA1
:1016C000BDEEE80AB8EEC00A38EEC09A4FF0000A44
:1016D00007E009EB89004FEA40090AF1010000F038
:1016E000FF0AB245F5DB00EE109AB8EEC00A29EE0B
:1016F000000AB0EE409ABDEEC90A10EE108AB5EEAF
:10170000C08AF1EE10FA06D223462D222846089907
:10171000FFF7DCFE05E023462B2228460899FFF759
:10172000D5FEA34604EBDB7105EB6101C8B20223D1
:101730003A4600940899FFF71BFF04EB440B0BEBB0
:10174000DB7105EB6101C8B223462E220899FFF731
:10175000BDFE05EB4401C8B23346424600940899E9
:10176000FFF74CFF01B0BDEC048B06B0BDE8F08F75
:1017700070B504460D461DB1E0B200F063F902E019
:10178000E0B200F049F970BD10B510220521024801
:10179000FFF73BFA10BD00000074014070470000E5
:1017A0000021010F31B1094AD26A22F47852074B65
:1017B000DA6205E0054AD26A22F4F872034BDA6273
:1017C000024AD26A0243014BDA62704700100240BB
:1017D00029B1064A52690243044B5A6104E0034AA4
:1017E00052698243014B5A61704700000010024069
:1017F00029B1064A926A0243044B9A6204E0034A02
:10180000926A8243014B9A627047000000100240C6
:1018100029B1064A92690243044B9A6104E0034AE3
:1018200092698243014B9A617047000000100240A8
:101830000549096B21F48051034A11631146096B74
:101840000143116370470000001002407047000020
:101850000CB50020019000902C48006840F48030C6
:101860002A49086000BF2948006800F40030009051
:101870000198401C0190009818B90198B0F5A04F4C
:10188000F1D12248006800F4003010B1012000902E
:1018900001E0002000900098012836D112201C4958
:1018A00008601A484068194948600846406848601E
:1018B0000846406840F4806048600846406820F46C
:1018C0007C1048600846406840F4E81048600846CC
:1018D000006840F08070086000BF0C48006800F0AD
:1018E00000700028F9D00948406820F0030007493B
:1018F00048600846406840F00200486000BF034866
:10190000406800F00C000828F9D10CBD001002401E
:101910000020024010B500F043F810BD10B51B4880
:10192000006840F47000194908601948006840F0E8
:1019300001001749086008464068164908401449E4
:101940004860084600681449084011490860084684
:10195000006820F4802008600846406820F4FE00FB
:1019600048600846C06A20F00F00C8620846006B55
:101970000A4908400649086300208860FFF768FFAD
:101980004FF0006001498039086010BD88ED00E02B
:10199000001002400CC07FF8FFFFF6FECCFC00FFF9
:1019A0000448006820B103480068401E01490860EF
:1019B000704700003000002000BFFEE72DE9F04135
:1019C00005462C464FF480711248FFF763F8002655
:1019D0001CE0274607F08007802F04D1B9000D488E
:1019E000FFF75AF804E04FF400710A48FFF752F885
:1019F0006006040E4FF480710648FFF74DF84FF46F
:101A000080710448FFF746F8701CC6B2082EE0DB70
:101A1000BDE8F0810004004810B50446FFF780FBE4
:101A20007820FFF7CBFFFFF7A7FB0020FFF7C6FFEB
:101A3000FFF7A2FB2046FFF7C1FFFFF79DFBFFF773
:101A400087FB10BD10B50446FFF76AFB7820FFF74F
:101A5000B5FFFFF791FB4020FFF7B0FFFFF78CFBCE
:101A60002046FFF7ABFFFFF787FBFFF771FB10BDC9
:101A700002E008C8121F08C1002AFAD17047704757
:101A8000002001E001C1121F002AFBD170470000B5
:101A900001B504490098086000BF024800680028AA
:101AA000FBD108BD3000002003468B4209DD914286
:101AB00001DD084670479A4201DD1846FAE71046F4
:101AC000F8E7914201DA0846F4E79A4201DA18464B
:101AD000F0E71046EEE700004FF4004001490880AF
:101AE00070470000280800484FF400400149086092
:101AF00070470000180800484FF4804001490880F2
:101B000070470000280800484FF4804001490860F1
:101B100070470000180800484FF400500149088041
:101B200070470000280800484FF400500149086041
:101B3000704700001808004800F096FA01E000F035
:101B400001F8FCE710B56420FFF7A2FF0020FFF7C3
:101B500053FB444908700846007801280CD1B7EEC1
:101B6000000A414880ED000A9FED400A80ED010A1D
:101B70009FED3E0A80ED020A3A48007802280CD117
:101B80009FED3A0A384880ED000AB7EE000A80ED72
:101B9000010A9FED360A80ED020A324800780328D8
:101BA0000CD19FED320A304880ED000A9FED2F0ADC
:101BB00080ED010AB7EE000A80ED020A2C48D0ED54
:101BC000040AB0EE600A1023042200210846FFF741
:101BD00059FD2748D0ED050AB0EE600A1023042213
:101BE00002210020FFF74EFD2148D0ED060AB0EE9D
:101BF000600A1023042211460020FFF743FD1C4811
:101C0000D0ED070AB0EE600A10230422062100205E
:101C1000FFF738FD164890ED080AB5EEC00AF1EE60
:101C200010FA02D0FFF760FF01E0FFF755FF104800
:101C300090ED090AB5EEC00AF1EE10FA02D0FFF7F6
:101C400063FF01E0FFF758FF094890ED0A0AB5EE7F
:101C5000C00AF1EE10FA02D0FFF766FF01E0FFF7CD
:101C60005BFF10BD19000020A8000020000000004C
:101C70007C00002000B59BB04FF48070FFF790FD12
:101C800001210807FFF7A4FD01210846FFF7C0FD69
:101C900001210846FFF79CFD3F20199003208DF895
:101CA000680000208DF86B0003208DF8690000208B
:101CB0008DF86A0019A9E748FEF775FE0F20199004
:101CC00003208DF8680000208DF86B0003208DF84C
:101CD000690000208DF86A0019A94FF09040FEF7C6
:101CE00062FEDD48FEF78CFDDB481430FEF788FD10
:101CF0000EA8FEF749FED9480E90D9480F90002053
:101D000010900F20ADF84400002012908020139016
:101D10004000149080001590202016904FF4405001
:101D20001790002018900EA9CB481430FEF70EFE35
:101D3000CC480E90CA481E300F90002010900F2003
:101D4000ADF84400002012908020139040001490C1
:101D500080001590202016900020179018900EA952
:101D6000BD48FEF7F3FD0121BB481430FEF73CFDF2
:101D70000121B948FEF738FDB8484038FEF7ACFB02
:101D80004FF0A040FEF7A8FB01214FF0A040FEF766
:101D90008EFC0121B1484038FEF789FC0A20FFF78C
:101DA00077FE0021AD484038FEF76FFC00214FF070
:101DB000A040FEF76AFCA9484038FEF76EFC4FF0E1
:101DC000A040FEF76AFC00BFA4484038FEF7ACFB19
:101DD0000028F9D100BF4FF0A040FEF7A5FB002876
:101DE000F9D1019002904FF400400390022004903A
:101DF00001208DF8140001A998484038FEF726FB11
:101E000001A94FF0A040FEF721FB002006900790AB
:101E10004FF4E07008904FF48060099000200A9021
:101E20000B900C900F208DF8340006A98B48403899
:101E3000FEF78EFB0020069007904FF4007008908C
:101E40008000099000200A900B900C900F208DF8D4
:101E5000340006A94FF0A040FEF77AFB02217F482C
:101E60004038FEF730FB02214FF0A040FEF72BFB7D
:101E70000523012211461807FEF78AFB05230222DB
:101E800011461807FEF784FB0523032211461807A5
:101E9000FEF77EFB0523042211461807FEF778FBA8
:101EA00005231A4606211807FEF772FB05230622B2
:101EB00001211807FEF76CFB0523072202211807F2
:101EC000FEF766FB0523082203211807FEF760FBD7
:101ED0000523092204211807FEF75AFB05230A22CD
:101EE0000621D006FEF754FB05230B22012118071B
:101EF000FEF74EFB05230C2202211807FEF748FBD4
:101F000005230D2203211807FEF742FB05230E22AD
:101F100004211807FEF73CFB05230F2206211807B2
:101F2000FEF736FB052301220B214C484038FEF713
:101F30002FFB05230222194648484038FEF728FBAC
:101F400005230322072145484038FEF721FB0523DE
:101F50000422082141484038FEF71AFB05231A469F
:101F600009213E484038FEF713FB052306220B21CA
:101F70003A484038FEF70CFB05230722194637483C
:101F80004038FEF705FB0523082207213348403877
:101F9000FEF7FEFA05230922082130484038FEF7F3
:101FA000F7FA05230A2209212C484038FEF7F0FAF7
:101FB00005230B22114629484038FEF7E9FA05238C
:101FC0000C22194625484038FEF7E2FA05230D2277
:101FD000072122484038FEF7DBFA05230E220821AC
:101FE0001E484038FEF7D4FA05230F2209211B486A
:101FF0004038FEF7CDFA012118484038FEF758FA6C
:1020000001214FF0A040FEF753FA01211348403858
:10201000FEF711FA01214FF0A040FEF70CFA00BFC5
:1020200001210E484038FEF789FA0028F8D000BF99
:1020300001214FF0A040FEF781FA0028F8D00748B0
:102040004038FEF72FFB4FF0A040FEF72BFB1BB0F4
:1020500000BD000000080048080002404001005098
:10206000D40000204000005010B500F009FC4FF4EF
:102070009670FFF70DFDFFF7FDFDFEF727FBFEF75E
:10208000AFFB0122042144F6206000F009F8FFF7BD
:1020900081F8FFF77BF9FFF7DFF8FFF757F910BD7D
:1020A0002DE9F0412DED068BAAB004460D461746EA
:1020B0000020289029902490259026902790202178
:1020C0001CA8FEF786F8202114A8FEF782F820212C
:1020D0000CA8FEF77EF8242103A8FEF77AF800206A
:1020E00001900290009049F28800844203D89FED4D
:1020F000FE8A022609E0FD48844203D89FEDFC8A4F
:10210000012602E09FEDFB8A00264FF48050FFF786
:102110008FFB01214807FFF77BFB0C21F648FEF7F8
:1021200093FD00BF4FF48031F348FEF7C7FD002850
:10213000F8D0002014901590169017904FF0006082
:102140001890002019901A904FF000501B9000EE4C
:10215000104AB8EE400AC8EE000ABCEEE00A8DED67
:10216000240A781E259026960820279014AB24AACE
:102170000521E148FEF7B5FF05F0010000286ED00B
:102180004FF44070289003208DF8A50002208DF8B0
:10219000A40000208DF8A6008DF8A70028A94FF014
:1021A0009040FEF700FC0D2208214FF09040FEF712
:1021B00045FC0D220921C806FEF740FC4FF00050F7
:1021C0001B9000EE104AB8EE400AC8EE000ABCEEC2
:1021D000E00A8DED240A01202590269608202790FC
:1021E00014AB24AA0021C448FEF77BFF4FF4807093
:1021F0001F90002020901D901E901C9022902390F4
:102200004FF4002021901CAA0021BB48FEF720FFBC
:1022100000200C9008200D9040200E9000200F9080
:1022200010901190129013900CAB01220021B24833
:10223000FEF7FCFE0120039000200A9009900B900D
:102240004FF49670089000200690059007904FF488
:102250009670049003AA0021A748FEF709FD05F037
:102260000200022871D14FF44060289003208DF8BD
:10227000A50002208DF8A40000208DF8A6008DF89E
:10228000A70028A94FF09040FEF78DFB0D220A21F0
:102290004FF09040FEF7D2FB0D220B214FF0904003
:1022A000FEF7CCFB4FF000501B9000EE104AB8EE4A
:1022B000400AC8EE000ABCEEE00A8DED240A0120B7
:1022C000259026960820279014AB24AA01218A483D
:1022D000FEF707FF4FF480701F90002020901D90A4
:1022E0001E901C9010202290002023904FF480100C
:1022F00021901CAA01218048FEF7AAFE00200C9024
:1023000008200D9040200E9000200F90109011900A
:10231000129013900CAB042201217748FEF786FE41
:102320000120039000200A9009900B904FF49670C2
:10233000089000200690059007904FF49670049046
:1023400003AA01216C48FEF793FC05F00400042861
:102350006CD14FF44050289003208DF8A500022046
:102360008DF8A40000208DF8A6008DF8A70028A9FC
:102370006248FEF718FB0D220C216048FEF75EFB59
:102380000D2211465D48FEF759FB4FF000501B909F
:1023900000EE104AB8EE400AC8EE000ABCEEE00AB1
:1023A0008DED240A0120259026960820279014AB55
:1023B00024AA02215048FEF794FE4FF480701F902B
:1023C000002020901D901E901C90229023904FF48E
:1023D000001021901CAA02214748FEF739FE002078
:1023E0000C9008200D9040200E9000200F9010902F
:1023F0001190129013900CAB102202213E48FEF770
:1024000015FE0120039000200A9009900B904FF4D4
:102410009670089000200690059007904FF49670F3
:10242000049003AA02213448FEF722FC05F00800BC
:10243000082879D14FF44040289003208DF8A5005A
:1024400002208DF8A40000208DF8A6008DF8A700CA
:1024500028A92A48FEF7A7FA0D220E212748FEF7E1
:10246000EDFA0D220F212548FEF7E8FA4FF0005053
:102470001B9000EE104AB8EE400AC8EE000ABCEE0F
:10248000E00A8DED240A0120259026960820279049
:1024900014AB24AA03211848FEF723FE4FF48070E2
:1024A0001F90002020901D901E901C902290239041
:1024B0004FF4800021901CAA03210F48FEF7C8FDAD
:1024C00000200C9008200D9040200E9000200F90CE
:1024D00010901190129013900CAB402203210648EB
:1024E000FEF7A4FD01200BE04054894E5815010071
:1024F0004054094F4054894F007401400004004883
:10250000039000200A9009900B904FF49670089069
:1025100000200690059007904FF49670049003AA4F
:102520000321B048FEF7A4FB2498FDF7CFFE41EC51
:102530001A0B9FEDAD0B53EC102BFDF755FE41EC44
:10254000190BFDF7D0FE804642460121A548FEF753
:1025500006FC2498FDF7BAFE41EC1A0B9FEDA20B86
:1025600053EC102BFDF740FE41EC190BFDF7BBFEC1
:102570008046424608219B48FEF7F1FB2498FDF770
:10258000A5FE41EC1A0B9FED980B53EC102BFDF7B9
:102590002BFE41EC190BFDF7A6FE804643460122B7
:1025A00003219048FEF780FC2498FDF78FFE41EC54
:1025B0001A0B9FED8D0B53EC102BFDF715FE41EC24
:1025C000190BFDF790FE80464346082203218548FB
:1025D000FEF76AFC2498FDF779FE41EC1A0B9FED9B
:1025E000820B53EC102BFDF7FFFD41EC190BFDF7AF
:1025F0007AFE80464346012200217A48FEF754FCC9
:102600002498FDF763FE41EC1A0B9FED770B53EC1A
:10261000102BFDF7E9FD41EC190BFDF764FE804638
:102620004346082200216F48FEF73EFC2498FDF740
:102630004DFE41EC1A0B9FED6C0B53EC102BFDF78C
:10264000D3FD41EC190BFDF74EFE804643460122B7
:1026500011466448FEF728FC2498FDF737FE41EC4C
:102660001A0B9FED610B53EC102BFDF7BDFD41ECF8
:10267000190BFDF738FE80464346082201215948D0
:10268000FEF712FC2498FDF721FE41EC1A0B9FED9A
:10269000560B53EC102BFDF7A7FD41EC190BFDF782
:1026A00022FE80464346012202214E48FEF7FCFBF3
:1026B0002498FDF70BFE41EC1A0B9FED4B0B53ECEE
:1026C000102BFDF791FD41EC190BFDF70CFE804638
:1026D0004346082202214348FEF7E6FB2498FDF713
:1026E000F5FD41EC1A0B9FED400B53EC102BFDF761
:1026F0007BFD41EC190BFDF7F6FD804643460122B8
:1027000003213848FEF7D0FB2498FDF7DFFD41ECAC
:102710001A0B9FED350B53EC102BFDF765FD41ECCB
:10272000190BFDF7E0FD80464346082203212D48A2
:10273000FEF7BAFB012002900020019001AA0421BB
:102740002848FEF729FA102002900020019001AAE3
:1027500001212448FEF720FA43208DF800000020D4
:102760008DF802008DF8010001208DF80300684605
:10277000FEF7B4FD0123102205211A48FEF7A9FA3D
:102780004FF4F0111748FEF74DFC05F0010018B1A9
:1027900003211448FEF758FC05F00200022803D17B
:1027A0000C211048FEF750FC05F00400042803D16A
:1027B00030210C48FEF748FC05F00800082803D13A
:1027C000C0210848FEF740FC4FF480310548FEF771
:1027D00029FC0749249808602AB0BDEC068BBDE8A7
:1027E000F081000000740140000000000000E03FA4
:1027F0004400002010B52DED028BF0EE408A044617
:102800001D4890ED000AB8EE400AF6EE000A20EEF0
:10281000200ABCEEC00AB0EE408AB6EE000A68EEAE
:10282000800A90ED000AB8EE401AB8EE480A00EEB1
:10283000C10ABCEEC00A10EE103A012221460F4830
:10284000FEF732FBB6EE000A68EE800A0A4890ED09
:10285000000AB8EE401AB8EE480A00EE810ABCEE53
:10286000C00A10EE103A082221460448FEF71CFB6D
:10287000BDEC028B10BD000044000020007401403C
:1028800070B51C4800684FF47A72B0FBF2F1481E34
:10289000B0F1807F00D31BE0481E4FF0E022506172
:1028A00050170F22002807DA13071D0E124B00F0F5
:1028B0000F04241F1D5503E013071C0E0F4B1C545F
:1028C00000BF00204FF0E02290610720106100BFA0
:1028D00001214804FEF77CFF01218804FEF778FF00
:1028E0000121C804FEF774FF01210805FEF770FFFF
:1028F00070BD00001C00002018ED00E000E400E0C6
:1029000010B50246012000E050430B1EA1F1010466
:10291000E1B2F9D110BD0000000000000000002F5E
:10292000000000000700070000147F147F1400243B
:102930002A7F2A1200626408132300364955225068
:1029400000000503000000001C224100000041229D
:102950001C000014083E08140008083E0808000087
:1029600000A060000008080808080000606000007F
:10297000002010080402003E5149453E0000427FFD
:102980004000004261514946002141454B31001849
:1029900014127F10002745454539003C4A4949300B
:1029A00000017109050300364949493600064949C5
:1029B000291E0000363600000000563600000008D0
:1029C00014224100001414141414000041221408AD
:1029D00000020151090600324959513E007C121192
:1029E000127C007F49494936003E41414122007F27
:1029F0004141221C007F49494941007F09090901E1
:102A0000003E4149497A007F0808087F0000417F65
:102A10004100002040413F01007F08142241007F17
:102A200040404040007F020C027F007F0408107F7E
:102A3000003E4141413E007F09090906003E4151E7
:102A4000215E007F091929460046494949310001A4
:102A5000017F0101003F4040403F001F2040201FF8
:102A6000003F4038403F00631408146300070870BB
:102A7000080700615149454300007F41410000556E
:102A80002A552A55000041417F000004020102043A
:102A90000040404040400000010204000020545427
:102AA0005478007F48444438003844444420003877
:102AB0004444487F00385454541800087E090102E9
:102AC0000018A4A4A47C007F080404780000447DBE
:102AD0004000004080847D00007F102844000000FA
:102AE000417F4000007C04180478007C08040478CE
:102AF00000384444443800FC2424241800182424BA
:102B000018FC007C080404080048545454200004B5
:102B10003F444020003C4040207C001C2040201CC2
:102B2000003C4030403C004428102844001CA0A039
:102B3000A07C004464544C44141414141414000075
:102B40000000000000000000000000000000000085
:102B500000F800000000000000333000000000100A
:102B60000C06100C0600000000000000000040C031
:102B70007840C0784000043F04043F040400007023
:102B800088FC08300000001820FF211E0000F0081B
:102B9000F000E018000000211C031E211E0000F0C0
:102BA0000888700000001E21232419272110101608
:102BB0000E00000000000000000000000000000007
:102BC00000E0180402000000000718204000000286
:102BD0000418E000000000402018070000004040FA
:102BE00080F0804040000202010F0102020000005C
:102BF00000F0000000000101011F010101000000C0
:102C000000000000000080B0700000000000000024
:102C100000000000000000010101010101010000AD
:102C20000000000000000030300000000000000044
:102C3000000080601804006018060100000000E039
:102C400010080810E000000F102020100F000010E6
:102C500010F8000000000020203F2020000000703D
:102C60000808088870000030282422213000003035
:102C70000888884830000018202020110E0000002D
:102C8000C02010F8000000070424243F240000F8AE
:102C90000888880808000019212020110E0000E093
:102CA000108888180000000F112020110E00003835
:102CB0000808C83808000000003F0000000000704D
:102CC000880808887000001C222121221C0000E0D6
:102CD00010080810E0000000312222110F0000004F
:102CE00000C0C00000000000003030000000000004
:102CF0000080000000000000806000000000000074
:102D0000804020100800000102040810200040400C
:102D1000404040404000040404040404040000084F
:102D20001020408000000020100804020100007004
:102D300048080808F0000000003036010000C030EC
:102D4000C828E810E0000718272423140B0000000F
:102D5000C038E0000000203C23020227382008F899
:102D6000888888700000203F202020110E00C0308D
:102D7000080808083800071820202010080008F864
:102D800008080810E000203F202020100F0008F85D
:102D90008888E8081000203F20202320180008F829
:102DA0008888E8081000203F200003000000C030A1
:102DB00008080838000007182020221E020008F822
:102DC00008000008F808203F210101213F200008E9
:102DD00008F8080800000020203F20200000000024
:102DE0000808F8080800C08080807F00000008F80C
:102DF00088C028180800203F20012638200008F845
:102E0000080000000000203F20202020300008F8AB
:102E1000F800F8F80800203F003F003F200008F8C5
:102E200030C00008F808203F200007183F00E010DD
:102E300008080810E0000F10202020100F0008F8EC
:102E400008080808F000203F210101010000E010FF
:102E500008080810E0000F18242438504F0008F824
:102E6000888888887000203F2000030C3020007084
:102E70008808080838000038202121221C00180882
:102E800008F8080818000000203F2000000008F89B
:102E900008000008F808001F202020201F000878E4
:102EA000880000C83808000007380E010000F80844
:102EB00000F80008F800033C0700073C030008186E
:102EC00068808068180820302C03032C30200838D4
:102ED000C800C83808000000203F2000000010088B
:102EE0000808C838080020382621202018000000D3
:102EF00000FE020202000000007F40404000000C83
:102F000030C000000000000000010638C0000002D0
:102F10000202FE000000004040407F000000000070
:102F20000402020204000000000000000000000093
:102F3000000000000000808080808080808000028F
:102F4000020400000000000000000000000000007B
:102F50008080808000000019242222223F2008F86F
:102F6000008080000000003F112020110E000000B2
:102F7000008080800000000E112020201100000041
:102F800000808088F800000E112020103F200000F3
:102F9000808080800000001F2222222213000080F7
:102FA00080F0888888180020203F20200000000042
:102FB000808080808000006B94949493600008F877
:102FC000008080800000203F210000203F20008002
:102FD0009898000000000020203F20200000000002
:102FE00000809898000000C08080807F000008F872
:102FF000000080808000203F24022D302000000847
:1030000008F8000000000020203F20200000808001
:10301000808080808000203F20003F20003F808013
:10302000008080800000203F210000203F20000021
:10303000808080800000001F202020201F008080D2
:1030400000808000000080FFA12020110E00000001
:10305000008080808000000E112020A0FF808080F2
:1030600080008080800020203F212000010000009F
:103070008080808080000033242424241900008074
:1030800080E0808000000000001F20200000808081
:10309000000000808000001F202020103F20808042
:1030A00080000080808000010E30080601008080D2
:1030B0000080008080800F300C030C300F000080F7
:1030C0008000808080000020312E0E312000808022
:1030D00080000080808080818E7018060100008052
:1030E0008080808080000021302C22213000000070
:1030F0000000807C020200000000003F4040000011
:103100000000FF00000000000000FF0000000002BF
:10311000027C800000000040403F000000000006EC
:103120000101020204040000000000000000000091
:10313000503100080000002048000000701A00080C
:103140009831000848000020C8100000801A0008CC
:10315000000000000000204200000000000000000D
:1031600000000000000000000000000000A24A046F
:103170000000000000000000010203040607080927
:10318000000000000000000000000000000000003F
:08319000000000000000000037
:040000050800018965
:00000001FF
